:08000000803102288731EC2F4A
:100BEA000134FF34203021009700080024009401CA
:100BFA002030950092010800320099019B019D0165
:100C0A0006309F009E010800F0002400951370082A
:100C1A009100141C112E122E0E2E11080800863176
:100C2A00CC2686318631012686318531F7258631F3
:100C3A008531FB2586310800F4007408E0388631D6
:100C4A00092686317108863109268631720886316D
:100C5A000926863173088631092686310800F20191
:100C6A00F301FF308631092686310130F207003060
:100C7A00F33D7308803AF10080307102031D472E5C
:100C8A0004307202031C4A2E4B2E362E0800F20143
:100C9A00F30100308631092686310130F20700302F
:100CAA00F33D7308803AF10080307102031D5F2E14
:100CBA0004307202031C622E632E4E2E080000308E
:100CCA00FB000030FA000030F9000030F800701C18
:100CDA006F2E702E782E7408F8077508F93D76087D
:100CEA00FA3D7708FB3D0130F435F50DF60DF70DA9
:100CFA00890B792E0130F336F20CF10CF00C890BCA
:100D0A00802E7308720471047004031D8D2E8E2EBA
:100D1A006C2E7B08F3007A08F2007908F100780853
:100D2A00F000080020002808F3002708F20026082F
:100D3A00F1002508F0004C30F7009530F6007F30BE
:100D4A00F5002D30F40086316426863101307007B3
:100D5A002000A5000030713DA6000030723DA700BA
:100D6A000030733DA8002508A9002608AA00270814
:100D7A00AB002808AC001130AC36AB0CAA0CA90C9D
:100D8A00890BC12E2A08FD002908FC000800220050
:100D9A008C018D018E01373021008C00A0308D002E
:100DAA00FF308E00FF3023008E00A0308D003630D9
:100DBA008C0024008D018C018E0125008C018D018F
:100DCA008E0100308B1B0130F0008B1355303C0034
:100DDA008F00AA308F000F10E030A1052008E039FB
:100DEA000E38A0003D001C08E03919389C001E0886
:100DFA00E03918389E0055303C008F00AA308F0029
:100E0A000F14700C031C8B1303188B170800863100
:100E1A0014268731282F3B3020020318152F162F4E
:100E2A001B2F0130AD002D08A007882FA101A10AB0
:100E3A00882F20080319222F232F262F0130A002E2
:100E4A00882FA101882F20002108AD00AE012E08AD
:100E5A00003A0319312F882F2D08003A0319102F51
:100E6A00013A03191E2F882F230A03193D2F3E2FFB
:100E7A00432F0130AD002D08A307A42FA201A20A17
:100E8A00A42F320803194A2F4B2F4E2F0130B202DA
:100E9A00A42F0230AD002D08A200A42F240A0319A2
:100EAA00572F582F5D2F0130AD002D08A407A42F0E
:100EBA000330AD002D08A200A42F23080319662FC2
:100ECA00672F6A2F0130A302A42F0430AD002D082A
:100EDA00A200A42F320A0319732F742F792F01301D
:100EEA00AD002D08B207A42F0530AD002D08A200D1
:100EFA00A42F24080319822F832F862F0130A402DE
:100F0A00A42FA201A42F2208AD00AE012E08003A98
:100F1A000319902FA42F2D08003A0319392F013AEB
:100F2A000319462F033A0319532F013A0319622F63
:100F3A00073A03196F2F013A03197E2FA42F86311E
:100F4A00972687317C082000AD002D08A000863145
:100F5A004C2687312000B00130082006031DB62F29
:100F6A00B72FC82F2408AD002D08F1002308AE00C2
:100F7A002E08F2003208AF002F08F3000530863140
:100F8A0021268731CF2FF101F201F301003086319A
:100F9A002126873101302000AD002D08B0073C30F2
:100FAA003002031CD92FDA2FB12F8631342687312C
:100FBA0005302000AE000F30AD00F130890BE32F71
:100FCA00AD0BE32FAE0BE32F282F8031022885319A
:100FDA00F5258731B1008531F6258731B200A001A8
:100FEA00A101A201A301A401A501A601A701A801CB
:0A0FFA00200087310C2F3C34003436
:020000040001F9
:08000000FF3FFF3FFF3FFF3F00
:08000E008C3FF33FFF3FFF3F71
:00000001FF
