:08000000803102288731E62F50
:100BD000203021009700080001341F341F341F34D7
:100BE0002400940120309500920108003200990100
:100BF0009B019D0106309F009E010800F00024002B
:100C0000951370089100141C062E072E032E110850
:100C100008008631C52686318531F6258631853135
:100C2000E82586318531F025863108002000A700AF
:100C30002708E0388531FE258631200024088531DB
:100C4000FE258631200025088531FE2586312000CD
:100C500026088531FE2586310800F201F301FF30B8
:100C60008531FE2586310130F2070030F33D7308EF
:100C7000803AF10080307102031D402E0430720270
:100C8000031C432E442E2F2E0800F201F3010030E6
:100C90008531FE2586310130F2070030F33D7308BF
:100CA000803AF10080307102031D582E0430720228
:100CB000031C5B2E5C2E472E08000030FB0000302A
:100CC000FA000030F9000030F800701C682E692E20
:100CD000712E7408F8077508F93D7608FA3D770813
:100CE000FB3D0130F435F50DF60DF70D890B722E35
:100CF0000130F336F20CF10CF00C890B792E7308ED
:100D0000720471047004031D862E872E652E7B08E5
:100D1000F3007A08F2007908F1007808F000080082
:100D200020003508F3003408F2003308F1003208DF
:100D3000F0004C30F7009530F6007F30F5002D3094
:100D4000F40086315D268631013070072000B20044
:100D50000030713DB3000030723DB4000030733D8F
:100D6000B5003208A0003308A1003408A2003508FD
:100D7000A3001130A336A20CA10CA00C890BBA2E33
:100D80002108FD002008FC00080022008C018D01D4
:100D90008E01373021008C00A0308D00FF308E0096
:100DA000FF3023008E00A0308D0036308C002400F0
:100DB0008D018C018E0125008C018D018E0100308A
:100DC0008B1B0130F0008B1355303C008F00AA3094
:100DD0008F000F10E030A1052008E0390E38A00088
:100DE0003D001C08E03919389C001E08E03918380D
:100DF0009E0055303C008F00AA308F000F14700CFD
:100E0000031C8B1303188B1708002000AA01A71FCF
:100E10000A2F0B2F122FA609A709A60A0319A70A42
:100E2000AA01AA0AA51F152F162F1B2FA409A50971
:100E3000A40A0319A50A240825040319202F212F29
:100E40004A2FA901A90A2D2F0130A435A50D890B20
:100E5000252F0130A8002808A907A51F302F312F02
:100E6000242F25082702031D372F24082602031CE0
:100E70003A2F3B2F3F2F2408A6022508A73B01301D
:100E8000A536A40C890B402F0130A902031D492F60
:100E90004A2F312F2A0803194E2F4F2F542FA609FE
:100EA000A709A60A0319A70A2708A5002608A4006F
:100EB0000800863109268731752F3B302F02031831
:100EC000622F632F682F0130AB002B08AF07862FEE
:100ED000B001B00A862F2F0803196F2F702F732FC0
:100EE0000130AF02862FB001862F20003008AB0002
:100EF000AC012C08003A03197E2F862F2B08003AEC
:100F000003195D2F013A03196B2F862F3C30A40083
:100F10000030A5008631902687317D082000A7008B
:100F20007C08A60087310527873120002408AB0004
:100F30002B08AF008631452687312000AE012E08F0
:100F40002F06031DA42FA52FC22F8631902687318F
:100F50007C082000AB002B08A40086319026873146
:100F60007C082000AC002C08A50086319026873133
:100F70007C082000AD002D08A6001F308631162603
:100F80008731C92FA401A501A6010030863116269C
:100F9000873101302000AB002B08AE073C302E0219
:100FA000031CD32FD42F9F2F86312D268731293034
:100FB0002000AC009630AB007F30890BDD2FAB0BEF
:100FC000DD2FAC0BDD2F752F803102288531EC250C
:100FD0008731B6008531ED258731B7008531EE25A3
:100FE0008731B8008531EF258731B900AF01B001F5
:100FF000B101B201B301B401B50120008731592F0D
:041000003C34003448
:020000040001F9
:08000000FF3FFF3FFF3FFF3F00
:08000E008C3FF33FFF3FFF3F71
:00000001FF
