:08000000803102288731E62F50
:100BE8002030210097000800013401340134053415
:100BF80024009401203095009201080032009901E8
:100C08009B019D0106309F009E010800F000240012
:100C1800951370089100141C122E132E0F2E110814
:100C280008008631CD268631863102268631853107
:100C3800F42586318531FC2586310800F4007408D6
:100C4800E03886310A268631710886310A268631CF
:100C5800720886310A268631730886310A2686315B
:100C68000800F201F301FF3086310A26863101308F
:100C7800F2070030F33D7308803AF10080307102CA
:100C8800031D482E04307202031C4B2E4C2E372EA7
:100C98000800F201F301003086310A26863101305E
:100CA800F2070030F33D7308803AF100803071029A
:100CB800031D602E04307202031C632E642E4F2E17
:100CC80008000030FB000030FA000030F900003066
:100CD800F800701C702E712E792E7408F8077508AC
:100CE800F93D7608FA3D7708FB3D0130F435F50DFE
:100CF800F60DF70D890B7A2E0130F336F20CF10C54
:100D0800F00C890B812E7308720471047004031DA2
:100D18008E2E8F2E6D2E7B08F3007A08F20079084C
:100D2800F1007808F000080020003708F3003608C2
:100D3800F2003508F1003408F0004C30F700953027
:100D4800F6007F30F5002D30F400863165268631B7
:100D5800013070072000B4000030713DB50000304C
:100D6800723DB6000030733DB7003408A000350866
:100D7800A1003608A2003708A3001130A336A20C40
:100D8800A10CA00C890BC22E2108FD002008FC0034
:100D9800080022008C018D018E01373021008C0063
:100DA800A0308D00FF308E00FF3023008E00A03071
:100DB8008D0036308C0024008D018C018E012500B9
:100DC8008C018D018E0100308B1B0130F0008B13DC
:100DD80055303C008F00AA308F000F10E030A1057D
:100DE8002008E0390E38A0003D001C08E039193809
:100DF8009C001E08E03918389E0055303C008F00D2
:100E0800AA308F000F14700C031C8B1303188B1758
:100E180008002000AA01A71F122F132F1A2FA609B6
:100E2800A709A60A0319A70AAA01AA0AA51F1D2F1E
:100E38001E2F232FA409A509A40A0319A50A24080B
:100E480025040319282F292F522FA901A90A352F64
:100E58000130A435A50D890B2D2F0130A8002808D5
:100E6800A907A51F382F392F2C2F25082702031D66
:100E78003F2F24082602031C422F432F472F240804
:100E8800A6022508A73B0130A536A40C890B482FDC
:100E98000130A902031D512F522F392F2A08031997
:100EA800562F572F5C2FA609A709A60A0319A70AC8
:100EB8002708A5002608A4000800863115268731D2
:100EC8007D2F3B30310203186A2F6B2F702F0130B2
:100ED800AB002B08B1078E2FB201B20A8E2F310852
:100EE8000319772F782F7B2F0130B1028E2FB20193
:100EF8008E2F20003208AB00AC012C08003A0319F1
:100F0800862F8E2F2B08003A0319652F013A0319F3
:100F1800732F8E2F86314D2687313C302000A40058
:100F28000030A5008631982687317D082000A7006B
:100F38007C08A60087310D27873120002508AE00E0
:100F48002408AD00AF01B00120002E083006031DB3
:100F5800AF2F2D082F06031DB22FB32FBE2F05303C
:100F6800AB002B08F100F201F3010530863122268F
:100F78008731C52FF101F201F301003086312226B5
:100F8800873101302000AF070030B03D3008803A8B
:100F9800AB0080302B02031DD32F3C302F02031CE3
:100FA800D62FD72FA82F86313526873168302000D5
:100FB800AB00E430890BDE2FAB0BDE2F00007D2F5A
:100FC800803102288531F8258731B8008531F92527
:100FD8008731B9008531FA258731BA008531FB257B
:100FE8008731BB00B101B201B301B401B501B6014B
:0C0FF800B70120008731612F3C34003429
:020000040001F9
:08000000FF3FFF3FFF3FFF3F00
:08000E008C3FF33FFF3FFF3F71
:00000001FF
