:08000000803102288731E92F4D
:100BE8001F341F341F3420302100970008002400D0
:100BF80094012030950092010800F1007108F0007E
:100C08007008FD000800640080010131890B082E7E
:100C18000034F1007108F00070082000B3000800EB
:100C2800F1007108F00070082000BE000800F10013
:100C38007108F00070082000BD000800320099011A
:100C48009B019D0106309F009E010800F0002400D2
:100C5800951370089100141C322E332E2F2E110874
:100C68000800093023009F0090309D0024309E002A
:100C780044309B009C0108002000911E442E452E04
:100C8800402E23009D1C492E4A2E4C2E1D121D1647
:100C980019080800873119278631863122268631BE
:100CA8008531F72586318531FB2586318631352614
:100CB80086310800F4007408E03886312A26863127
:100CC800710886312A268631720886312A268631AD
:100CD800730886312A268631080076089F3EF80078
:100CE800FF30773DF900003079021A300319780295
:100CF80003187F2E802E872E5F307605F600003091
:100D08007705F700872E0800F201F301FF308631DE
:100D18002A2686310130F2070030F33D7308803A05
:100D2800F10080307102031D9B2E04307202031CF7
:100D38009E2E9F2E8A2E0800F201F3010030863184
:100D48002A2686310130F2070030F33D7308803AD5
:100D5800F10080307102031DB32E04307202031CAF
:100D6800B62EB72EA22E080070089F3EF200FF3064
:100D7800713DF300003073021A3003197202031C2C
:100D8800C62EC82E0130C92E0030F400F5017408B3
:100D9800F0007508F100080086314E26863186314C
:100DA800E826863187316127863129302000BC004A
:100DB8009630BB007F30890BDF2EBB0BDF2EBC0BC0
:100DC800DF2ED32E803102288631A0268631F80105
:100DD800780820003306031DF22EF32E042F7D0819
:100DE800F5007508F1003E08F6007608F2003D08A7
:100DF800F7007708F3001F3086315E2686310B2F07
:100E0800F101F201F301003086315E2686310130AE
:100E1800F5007508F8073C307802031C142F152FCD
:100E2800EC2E863188268631080022008C018D013F
:100E38008E01373021008C0020308D00FF308E006D
:100E4800FF3023008E0080308D0036308C00240067
:100E58008D018C018E0125008C018D018E010030E1
:100E68008B1B0130F0008B1355303C008F00AA30EB
:100E78008F000F10E030A1052008E0390E38A000DF
:100E88002408E0390D38A4003D001C08E039193861
:100E98009C001F08E03914389F001E08E0391838F4
:100EA8009E0055303C008F00AA308F000F14700C44
:100EB800031C8B1303188B1708002000911E652F45
:100EC800662FE82FB101B2013430FA00F230890BF5
:100ED8006B2FFA0B6B2F7F2F863140268731FA0054
:100EE80020003108203E860087017A088100013001
:100EF800B1070030B23D2000911A832F842F702F44
:100F08003108203E8600870181012008FA007A080E
:100F1800B4003408FA00FB017A08F6007B08F700F1
:100F28008631712687317608FC007C082000B400E1
:100F3800B901BA0120003908213E8600870101085D
:100F4800FA003908283E860087017A0881000130B6
:100F5800B9070030BA3D3A08803AFA0080307A0280
:100F6800031DB82F08303902031CBB2FBC2F9E2F3E
:100F7800D12F003086310D268731E82F0030863199
:100F880001268731E82F0030863114268731E82F73
:100F9800003086311B268731E82F20003408FA00FC
:100FA800FB017B08003A0319DA2FE82F7A084C3A3C
:100FB8000319BD2F2E3A0319C22F053A0319C72F5B
:100FC800153A0319CC2FE82F08008531F42587310D
:100FD800FD008531F5258731BD008531F62587313E
:100FE800BE00203084000030850019308631072685
:0C0FF800873120008631D02E3C340034BC
:020000040001F9
:08000000FF3FFF3FFF3FFF3F00
:08000E008C3FF33FFF3FFF3F71
:00000001FF
