:08000000803102288731EC2F4A
:100B2A000134FF342030210097000800240094018A
:100B3A002030950092010800320099019B019D0125
:100B4A0006309F009E010800F000240095137008EB
:100B5A009100141CB12DB22DAE2D1108080086315A
:100B6A006C2685318531A1258531853197258531D9
:100B7A0085319B2585310800F4007408E0388531F9
:100B8A00A925853171088531A925853172088531F4
:100B9A00A925853173088531A92585310800F20117
:100BAA00F301FF308531A92585310130F207003084
:100BBA00F33D7308803AF10080307102031DE72D7E
:100BCA0004307202031CEA2DEB2DD62D0800F20127
:100BDA00F30100308531A92585310130F207003053
:100BEA00F33D7308803AF10080307102031DFF2D36
:100BFA0004307202031C022E032EEE2D0800003070
:100C0A00FB000030FA000030F9000030F800701CD8
:100C1A000F2E102E182E7408F8077508F93D76085D
:100C2A00FA3D7708FB3D0130F435F50DF60DF70D69
:100C3A00890B192E0130F336F20CF10CF00C890BEA
:100C4A00202E7308720471047004031D2D2E2E2E9B
:100C5A000C2E7B08F3007A08F2007908F100780874
:100C6A00F000080020003708F3003608F2003508C3
:100C7A00F1003408F0004C30F7009530F6007F3070
:100C8A00F5002D30F40086310426863101307007D4
:100C9A002000B4000030713DB5000030723DB6004E
:100CAA000030733DB7003408A0003508A1003608AB
:100CBA00A2003708A3001130A336A20CA10CA00C85
:100CCA00890B612E2108FD002008FC000800220083
:100CDA008C018D018E01373021008C00A0308D00EF
:100CEA00FF308E00FF3023008E00A0308D0036309A
:100CFA008C0024008D018C018E0125008C018D0150
:100D0A008E0100308B1B0130F0008B1355303C00F4
:100D1A008F00AA308F000F10E030A1052008E039BB
:100D2A000E38A0003D001C08E03919389C001E0846
:100D3A00E03918389E0055303C008F00AA308F00E9
:100D4A000F14700C031C8B1303188B170800200058
:100D5A00AA01A71FB12EB22EB92EA609A709A60A63
:100D6A000319A70AAA01AA0AA51FBC2EBD2EC22EC4
:100D7A00A409A509A40A0319A50A24082504031924
:100D8A00C72EC82EF12EA901A90AD42E0130A435E6
:100D9A00A50D890BCC2E0130A8002808A907A51F8C
:100DAA00D72ED82ECB2E25082702031DDE2E240887
:100DBA002602031CE12EE22EE62E2408A6022508AE
:100DCA00A73B0130A536A40C890BE72E0130A902F6
:100DDA00031DF02EF12ED82E2A080319F52EF62E11
:100DEA00FB2EA609A709A60A0319A70A2708A50020
:100DFA002608A40008008531B42587311C2F3B3012
:100E0A002F020318092F0A2F0F2F0130AB002B08CE
:100E1A00AF077C2FB001B00A7C2F2F080319162FB9
:100E2A00172F1A2F0130AF027C2FB0017C2F200020
:100E3A003008AB00AC012C08003A0319252F7C2F8F
:100E4A002B08003A0319042F013A0319122F7C2F99
:100E5A00320A0319312F322F372F0130AB002B08FA
:100E6A00B207982FB101B10A982F390803193E2FFA
:100E7A003F2F422F0130B902982F0230AB002B08C6
:100E8A00B100982F330A03194B2F4C2F512F0130E1
:100E9A00AB002B08B307982F0330AB002B08B10027
:100EAA00982F320803195A2F5B2F5E2F0130B20296
:100EBA00982F0430AB002B08B100982F390A031978
:100ECA00672F682F6D2F0130AB002B08B907982FB9
:100EDA000530AB002B08B100982F33080319762F81
:100EEA00772F7A2F0130B302982FB101982F31084A
:100EFA00AB00AC012C08003A0319842F982F2B0859
:100F0A00003A03192D2F013A03193A2F033A03190C
:100F1A00472F013A0319562F073A0319632F013A4B
:100F2A000319722F982F3C30A4000030A500863197
:100F3A00372687317D082000A7007C08A600863165
:100F4A00AC26873120002408AB002B08AF0085317E
:100F5A00EC2587312000AE012E082F06031DB62F7F
:100F6A00B72FC82F3308AB002B08F1003208AC00AA
:100F7A002C08F2003908AD002D08F3000530853140
:100F8A00C1258731CF2FF101F201F30100308531FC
:100F9A00C125873101302000AB002B08AE073C3059
:100FAA002E02031CD92FDA2FB12F8531D425873190
:100FBA0029302000AC009630AB007F30890BE32F3C
:100FCA00AB0BE32FAC0BE32F1C2F803102288531AA
:100FDA0095258731B800853196258731B900AF014B
:100FEA00B001B101B201B301B401B501B601B70153
:0A0FFA0020008731002F3C34003442
:020000040001F9
:08000000FF3FFF3FFF3FFF3F00
:08000E008C3FF33FFF3FFF3F71
:00000001FF
