:08000000803102288731F02F46
:100D60000134FF3420302100970008002400940152
:100D70002030950092010800320099019B019D01ED
:100D800006309F009E010800F000240095137008B3
:100D90009100141CCC2ECD2EC92E110808008731CD
:100DA0001F2786318631BC2686318631B2268631B0
:100DB0008631B62686310800F4007408E0388631A2
:100DC000C426863171088631C42686317208863180
:100DD000C426863173088631C42686310800F201A4
:100DE000F301FF308631C42686310130F20700302E
:100DF000F33D7308803AF10080307102031D022F29
:100E000004307202031C052F062FF12E0800F20198
:100E1000F30100308631C42687310130F2070030FB
:100E2000F33D7308803AF10080307102031D1A2FE0
:100E300004307202031C1D2F1E2F092F08002200F0
:100E40008C018D018E01373021008C00A0308D0087
:100E5000FF308E00FF3023008E00A0308D00363032
:100E60008C0024008D018C018E0125008C018D01E8
:100E70008E0100308B1B0130F0008B1355303C008D
:100E80008F00AA308F000F10E030A1052008E03954
:100E90000E38A0003D001C08E03919389C001E08DF
:100EA000E03918389E0055303C008F00AA308F0082
:100EB0000F14700C031C8B1303188B17080086315A
:100EC000CF2687317B2F3B3078020318682F692F9C
:100ED0006E2F0130F5007508F807A52FF901F90A02
:100EE000A52F78080319752F762F792F0130F80276
:100EF000A52FF901A52F7908F500F6017608003A2B
:100F00000319832FA52F7508003A0319632F013A9F
:100F10000319712FA52F7B0A03198F2F902F952F5F
:100F20000130F5007508FB07B52FFA01FA0AB52F55
:100F30007D0803199C2F9D2FA02F0130FD02B52F96
:100F40000230F5007508FA00B52F7A08F500F601B1
:100F50007608003A0319AD2FB52F7508003A03192A
:100F60008B2F013A0319982FB52F87310727873127
:100F7000F70177087806031DBE2FBF2FCD2FF10193
:100F80007B08F5007508F2007D08F6007608F3008E
:100F90001F308631DC268731D42FF101F201F301B5
:100FA00000308631DC2687310130F5007508F707FF
:100FB0003C307702031CDD2FDE2FB92F8631EF2660
:100FC00087310530F6000F30F500F130890BE62F40
:100FD000F50BE62FF60BE62F00007B2F8031022861
:100FE0008631B1268731FD008631B0268731A000D9
:100FF000F801F901FA01FB01FC01200087315F2FA4
:041000003C34003448
:020000040001F9
:08000000FF3FFF3FFF3FFF3F00
:08000E008C3FF33FFF3FFF3F71
:00000001FF
