:08000000803102288731E62F50
:100B260020302100970008000134FF34FF34FF34E1
:100B360024009401203095009201080032009901AA
:100B46009B019D0106309F009E010800F0002400D5
:100B5600951370089100141CB12DB22DAE2D1108FD
:100B6600080086316C2685318531A1258531853190
:100B76009325853185319B2585310800F40074085D
:100B8600E0388531A925853171088531A92585315A
:100B960072088531A925853173088531A9258531E6
:100BA6000800F201F301FF308531A92585310130B6
:100BB600F2070030F33D7308803AF100803071028D
:100BC600031DE72D04307202031CEA2DEB2DD62DF2
:100BD6000800F201F30100308531A9258531013085
:100BE600F2070030F33D7308803AF100803071025D
:100BF600031DFF2D04307202031C022E032EEE2D60
:100C060008000030FB000030FA000030F900003028
:100C1600F800701C0F2E102E182E7408F807750891
:100C2600F93D7608FA3D7708FB3D0130F435F50DC0
:100C3600F60DF70D890B192E0130F336F20CF10C77
:100C4600F00C890B202E7308720471047004031DC6
:100C56002D2E2E2E0C2E7B08F3007A08F200790832
:100C6600F1007808F000080020003408F30033088B
:100C7600F2003208F1003108F0004C30F7009530F0
:100C8600F6007F30F5002D30F400863104268631DB
:100C9600013070072000B1000030713DB200003015
:100CA600723DB3000030733DB4003108A000320835
:100CB600A1003308A2003408A3001130A336A20C09
:100CC600A10CA00C890B612E2108FD002008FC0058
:100CD600080022008C018D018E01373021008C0026
:100CE600A0308D00FF308E00FF3023008E00A03034
:100CF6008D0036308C0024008D018C018E0125007C
:100D06008C018D018E0100308B1B0130F0008B139E
:100D160055303C008F00AA308F000F10E030A1053F
:100D26002008E0390E38A0003D001C08E0391938CB
:100D36009C001E08E03918389E0055303C008F0094
:100D4600AA308F000F14700C031C8B1303188B171B
:100D560008002000AA01A71FB12EB22EB92EA6099F
:100D6600A709A60A0319A70AAA01AA0AA51FBC2E43
:100D7600BD2EC22EA409A509A40A0319A50A240892
:100D860025040319C72EC82EF12EA901A90AD42EAF
:100D96000130A435A50D890BCC2E0130A8002808FA
:100DA600A907A51FD72ED82ECB2E25082702031D4F
:100DB600DE2E24082602031CE12EE22EE62E24084F
:100DC600A6022508A73B0130A536A40C890BE72E01
:100DD6000130A902031DF02EF12ED82E2A08031980
:100DE600F52EF62EFB2EA609A709A60A0319A70AB1
:100DF6002708A5002608A40008008531B4258731F8
:100E06001C2F3B302E020318092F0A2F0F2F0130FB
:100E1600AB002B08AE077C2FAF01AF0A7C2F2E0844
:100E26000319162F172F1A2F0130AE027C2FAF0190
:100E36007C2F20002F08AB00AC012C08003A0319C8
:100E4600252F7C2F2B08003A0319042F013A03198A
:100E5600122F7C2F370A0319312F322F372F0130EB
:100E6600AB002B08B707982FB001B00A982F3608A9
:100E760003193E2F3F2F422F0130B602982F023022
:100E8600AB002B08B000982F380A03194B2F4C2FB4
:100E9600512F0130AB002B08B807982F0330AB0059
:100EA6002B08B000982F370803195A2F5B2F5E2F97
:100EB6000130B702982F0430AB002B08B000982FF2
:100EC600360A0319672F682F6D2F0130AB002B08E8
:100ED600B607982F0530AB002B08B000982F3808BE
:100EE6000319762F772F7A2F0130B802982FB00189
:100EF600982F3008AB00AC012C08003A0319842F58
:100F0600982F2B08003A03192D2F013A03193A2F6F
:100F1600033A0319472F013A0319562F073A0319C3
:100F2600632F013A0319722F982F3C30A40000302A
:100F3600A5008631372687317D082000A7007C086A
:100F4600A6008631AC26873120002408AB002B088A
:100F5600AE008531EC2587312000AD012D082E0627
:100F6600031DB62FB72FC22FF1013708AB002B0890
:100F7600F200F301FF308531C1258731C92FF10118
:100F8600F201F30100308531C1258731013020009F
:100F9600AB002B08AD073C302D02031CD32FD42FFA
:100FA600B12F8531D425873129302000AC00963009
:100FB600AB007F30890BDD2FAB0BDD2FAC0BDD2FAC
:100FC6001C2F80310228853197258731B500853160
:100FD60098258731B600853199258731B700853147
:100FE6009A258731B800AE01AF01B001B101B20157
:0E0FF600B301B40120008731002F3C340034D9
:020000040001F9
:08000000FF3FFF3FFF3FFF3F00
:08000E008C3FF33FFF3FFF3F71
:00000001FF
